{
  "_format": "hh-sol-artifact-1",
  "contractName": "ScottNFT",
  "sourceName": "contracts/ScottNFT.sol",
  "abi": [
    {
      "inputs": [],
      "stateMutability": "nonpayable",
      "type": "constructor"
    },
    {
      "inputs": [],
      "name": "ApprovalCallerNotOwnerNorApproved",
      "type": "error"
    },
    {
      "inputs": [],
      "name": "ApprovalQueryForNonexistentToken",
      "type": "error"
    },
    {
      "inputs": [],
      "name": "BalanceQueryForZeroAddress",
      "type": "error"
    },
    {
      "inputs": [],
      "name": "MintERC2309QuantityExceedsLimit",
      "type": "error"
    },
    {
      "inputs": [],
      "name": "MintToZeroAddress",
      "type": "error"
    },
    {
      "inputs": [],
      "name": "MintZeroQuantity",
      "type": "error"
    },
    {
      "inputs": [],
      "name": "NotCompatibleWithSpotMints",
      "type": "error"
    },
    {
      "inputs": [
        {
          "internalType": "address",
          "name": "owner",
          "type": "address"
        }
      ],
      "name": "OwnableInvalidOwner",
      "type": "error"
    },
    {
      "inputs": [
        {
          "internalType": "address",
          "name": "account",
          "type": "address"
        }
      ],
      "name": "OwnableUnauthorizedAccount",
      "type": "error"
    },
    {
      "inputs": [],
      "name": "OwnerQueryForNonexistentToken",
      "type": "error"
    },
    {
      "inputs": [],
      "name": "OwnershipNotInitializedForExtraData",
      "type": "error"
    },
    {
      "inputs": [],
      "name": "SequentialMintExceedsLimit",
      "type": "error"
    },
    {
      "inputs": [],
      "name": "SequentialUpToTooSmall",
      "type": "error"
    },
    {
      "inputs": [],
      "name": "SpotMintTokenIdTooSmall",
      "type": "error"
    },
    {
      "inputs": [],
      "name": "TokenAlreadyExists",
      "type": "error"
    },
    {
      "inputs": [],
      "name": "TransferCallerNotOwnerNorApproved",
      "type": "error"
    },
    {
      "inputs": [],
      "name": "TransferFromIncorrectOwner",
      "type": "error"
    },
    {
      "inputs": [],
      "name": "TransferToNonERC721ReceiverImplementer",
      "type": "error"
    },
    {
      "inputs": [],
      "name": "TransferToZeroAddress",
      "type": "error"
    },
    {
      "inputs": [],
      "name": "URIQueryForNonexistentToken",
      "type": "error"
    },
    {
      "anonymous": false,
      "inputs": [
        {
          "indexed": true,
          "internalType": "address",
          "name": "owner",
          "type": "address"
        },
        {
          "indexed": true,
          "internalType": "address",
          "name": "approved",
          "type": "address"
        },
        {
          "indexed": true,
          "internalType": "uint256",
          "name": "tokenId",
          "type": "uint256"
        }
      ],
      "name": "Approval",
      "type": "event"
    },
    {
      "anonymous": false,
      "inputs": [
        {
          "indexed": true,
          "internalType": "address",
          "name": "owner",
          "type": "address"
        },
        {
          "indexed": true,
          "internalType": "address",
          "name": "operator",
          "type": "address"
        },
        {
          "indexed": false,
          "internalType": "bool",
          "name": "approved",
          "type": "bool"
        }
      ],
      "name": "ApprovalForAll",
      "type": "event"
    },
    {
      "anonymous": false,
      "inputs": [
        {
          "indexed": true,
          "internalType": "uint256",
          "name": "fromTokenId",
          "type": "uint256"
        },
        {
          "indexed": false,
          "internalType": "uint256",
          "name": "toTokenId",
          "type": "uint256"
        },
        {
          "indexed": true,
          "internalType": "address",
          "name": "from",
          "type": "address"
        },
        {
          "indexed": true,
          "internalType": "address",
          "name": "to",
          "type": "address"
        }
      ],
      "name": "ConsecutiveTransfer",
      "type": "event"
    },
    {
      "anonymous": false,
      "inputs": [
        {
          "indexed": false,
          "internalType": "address",
          "name": "owner",
          "type": "address"
        },
        {
          "indexed": false,
          "internalType": "uint256",
          "name": "quantity",
          "type": "uint256"
        }
      ],
      "name": "NFTMinted",
      "type": "event"
    },
    {
      "anonymous": false,
      "inputs": [
        {
          "indexed": true,
          "internalType": "address",
          "name": "previousOwner",
          "type": "address"
        },
        {
          "indexed": true,
          "internalType": "address",
          "name": "newOwner",
          "type": "address"
        }
      ],
      "name": "OwnershipTransferred",
      "type": "event"
    },
    {
      "anonymous": false,
      "inputs": [
        {
          "indexed": true,
          "internalType": "address",
          "name": "from",
          "type": "address"
        },
        {
          "indexed": true,
          "internalType": "address",
          "name": "to",
          "type": "address"
        },
        {
          "indexed": true,
          "internalType": "uint256",
          "name": "tokenId",
          "type": "uint256"
        }
      ],
      "name": "Transfer",
      "type": "event"
    },
    {
      "inputs": [],
      "name": "MAX_SUPPLY",
      "outputs": [
        {
          "internalType": "uint256",
          "name": "",
          "type": "uint256"
        }
      ],
      "stateMutability": "view",
      "type": "function"
    },
    {
      "inputs": [
        {
          "internalType": "address",
          "name": "to",
          "type": "address"
        },
        {
          "internalType": "uint256",
          "name": "tokenId",
          "type": "uint256"
        }
      ],
      "name": "approve",
      "outputs": [],
      "stateMutability": "payable",
      "type": "function"
    },
    {
      "inputs": [
        {
          "internalType": "address",
          "name": "owner",
          "type": "address"
        }
      ],
      "name": "balanceOf",
      "outputs": [
        {
          "internalType": "uint256",
          "name": "",
          "type": "uint256"
        }
      ],
      "stateMutability": "view",
      "type": "function"
    },
    {
      "inputs": [],
      "name": "contractURI",
      "outputs": [
        {
          "internalType": "string",
          "name": "",
          "type": "string"
        }
      ],
      "stateMutability": "pure",
      "type": "function"
    },
    {
      "inputs": [
        {
          "internalType": "uint256",
          "name": "tokenId",
          "type": "uint256"
        }
      ],
      "name": "getApproved",
      "outputs": [
        {
          "internalType": "address",
          "name": "",
          "type": "address"
        }
      ],
      "stateMutability": "view",
      "type": "function"
    },
    {
      "inputs": [
        {
          "internalType": "address",
          "name": "owner",
          "type": "address"
        },
        {
          "internalType": "address",
          "name": "operator",
          "type": "address"
        }
      ],
      "name": "isApprovedForAll",
      "outputs": [
        {
          "internalType": "bool",
          "name": "",
          "type": "bool"
        }
      ],
      "stateMutability": "view",
      "type": "function"
    },
    {
      "inputs": [],
      "name": "name",
      "outputs": [
        {
          "internalType": "string",
          "name": "",
          "type": "string"
        }
      ],
      "stateMutability": "view",
      "type": "function"
    },
    {
      "inputs": [],
      "name": "owner",
      "outputs": [
        {
          "internalType": "address",
          "name": "",
          "type": "address"
        }
      ],
      "stateMutability": "view",
      "type": "function"
    },
    {
      "inputs": [
        {
          "internalType": "uint256",
          "name": "tokenId",
          "type": "uint256"
        }
      ],
      "name": "ownerOf",
      "outputs": [
        {
          "internalType": "address",
          "name": "",
          "type": "address"
        }
      ],
      "stateMutability": "view",
      "type": "function"
    },
    {
      "inputs": [],
      "name": "renounceOwnership",
      "outputs": [],
      "stateMutability": "nonpayable",
      "type": "function"
    },
    {
      "inputs": [
        {
          "internalType": "uint256",
          "name": "quantity",
          "type": "uint256"
        }
      ],
      "name": "safeMint",
      "outputs": [],
      "stateMutability": "nonpayable",
      "type": "function"
    },
    {
      "inputs": [
        {
          "internalType": "address",
          "name": "from",
          "type": "address"
        },
        {
          "internalType": "address",
          "name": "to",
          "type": "address"
        },
        {
          "internalType": "uint256",
          "name": "tokenId",
          "type": "uint256"
        }
      ],
      "name": "safeTransferFrom",
      "outputs": [],
      "stateMutability": "payable",
      "type": "function"
    },
    {
      "inputs": [
        {
          "internalType": "address",
          "name": "from",
          "type": "address"
        },
        {
          "internalType": "address",
          "name": "to",
          "type": "address"
        },
        {
          "internalType": "uint256",
          "name": "tokenId",
          "type": "uint256"
        },
        {
          "internalType": "bytes",
          "name": "_data",
          "type": "bytes"
        }
      ],
      "name": "safeTransferFrom",
      "outputs": [],
      "stateMutability": "payable",
      "type": "function"
    },
    {
      "inputs": [
        {
          "internalType": "address",
          "name": "operator",
          "type": "address"
        },
        {
          "internalType": "bool",
          "name": "approved",
          "type": "bool"
        }
      ],
      "name": "setApprovalForAll",
      "outputs": [],
      "stateMutability": "nonpayable",
      "type": "function"
    },
    {
      "inputs": [
        {
          "internalType": "bytes4",
          "name": "interfaceId",
          "type": "bytes4"
        }
      ],
      "name": "supportsInterface",
      "outputs": [
        {
          "internalType": "bool",
          "name": "",
          "type": "bool"
        }
      ],
      "stateMutability": "view",
      "type": "function"
    },
    {
      "inputs": [],
      "name": "symbol",
      "outputs": [
        {
          "internalType": "string",
          "name": "",
          "type": "string"
        }
      ],
      "stateMutability": "view",
      "type": "function"
    },
    {
      "inputs": [
        {
          "internalType": "uint256",
          "name": "tokenId",
          "type": "uint256"
        }
      ],
      "name": "tokenURI",
      "outputs": [
        {
          "internalType": "string",
          "name": "",
          "type": "string"
        }
      ],
      "stateMutability": "view",
      "type": "function"
    },
    {
      "inputs": [],
      "name": "totalSupply",
      "outputs": [
        {
          "internalType": "uint256",
          "name": "",
          "type": "uint256"
        }
      ],
      "stateMutability": "view",
      "type": "function"
    },
    {
      "inputs": [
        {
          "internalType": "address",
          "name": "from",
          "type": "address"
        },
        {
          "internalType": "address",
          "name": "to",
          "type": "address"
        },
        {
          "internalType": "uint256",
          "name": "tokenId",
          "type": "uint256"
        }
      ],
      "name": "transferFrom",
      "outputs": [],
      "stateMutability": "payable",
      "type": "function"
    },
    {
      "inputs": [
        {
          "internalType": "address",
          "name": "newOwner",
          "type": "address"
        }
      ],
      "name": "transferOwnership",
      "outputs": [],
      "stateMutability": "nonpayable",
      "type": "function"
    }
  ],
  "bytecode": "0x60806040523480156200001157600080fd5b50336040518060400160405280600881526020017f53636f74744e46540000000000000000000000000000000000000000000000008152506040518060400160405280600581526020017f53434f54540000000000000000000000000000000000000000000000000000008152508160029081620000909190620004ff565b508060039081620000a29190620004ff565b50620000b36200018860201b60201c565b600081905550620000c96200018860201b60201c565b620000d96200018d60201b60201c565b1015620000f957620000f863fed8210f60e01b620001b560201b60201c565b5b5050600073ffffffffffffffffffffffffffffffffffffffff168173ffffffffffffffffffffffffffffffffffffffff1603620001705760006040517f1e4fbdf70000000000000000000000000000000000000000000000000000000081526004016200016791906200062b565b60405180910390fd5b6200018181620001bf60201b60201c565b5062000648565b600090565b60007fffffffffffffffffffffffffffffffffffffffffffffffffffffffffffffffff905090565b8060005260046000fd5b6000600960009054906101000a900473ffffffffffffffffffffffffffffffffffffffff16905081600960006101000a81548173ffffffffffffffffffffffffffffffffffffffff021916908373ffffffffffffffffffffffffffffffffffffffff1602179055508173ffffffffffffffffffffffffffffffffffffffff168173ffffffffffffffffffffffffffffffffffffffff167f8be0079c531659141344cd1fd0a4f28419497f9722a3daafe3b4186f6b6457e060405160405180910390a35050565b600081519050919050565b7f4e487b7100000000000000000000000000000000000000000000000000000000600052604160045260246000fd5b7f4e487b7100000000000000000000000000000000000000000000000000000000600052602260045260246000fd5b600060028204905060018216806200030757607f821691505b6020821081036200031d576200031c620002bf565b5b50919050565b60008190508160005260206000209050919050565b60006020601f8301049050919050565b600082821b905092915050565b600060088302620003877fffffffffffffffffffffffffffffffffffffffffffffffffffffffffffffffff8262000348565b62000393868362000348565b95508019841693508086168417925050509392505050565b6000819050919050565b6000819050919050565b6000620003e0620003da620003d484620003ab565b620003b5565b620003ab565b9050919050565b6000819050919050565b620003fc83620003bf565b620004146200040b82620003e7565b84845462000355565b825550505050565b600090565b6200042b6200041c565b62000438818484620003f1565b505050565b5b8181101562000460576200045460008262000421565b6001810190506200043e565b5050565b601f821115620004af57620004798162000323565b620004848462000338565b8101602085101562000494578190505b620004ac620004a38562000338565b8301826200043d565b50505b505050565b600082821c905092915050565b6000620004d460001984600802620004b4565b1980831691505092915050565b6000620004ef8383620004c1565b9150826002028217905092915050565b6200050a8262000285565b67ffffffffffffffff81111562000526576200052562000290565b5b620005328254620002ee565b6200053f82828562000464565b600060209050601f83116001811462000577576000841562000562578287015190505b6200056e8582620004e1565b865550620005de565b601f198416620005878662000323565b60005b82811015620005b1578489015182556001820191506020850194506020810190506200058a565b86831015620005d15784890151620005cd601f891682620004c1565b8355505b6001600288020188555050505b505050505050565b600073ffffffffffffffffffffffffffffffffffffffff82169050919050565b60006200061382620005e6565b9050919050565b620006258162000606565b82525050565b60006020820190506200064260008301846200061a565b92915050565b61213c80620006586000396000f3fe60806040526004361061011f5760003560e01c806370a08231116100a0578063b88d4fde11610064578063b88d4fde146103ac578063c87b56dd146103c8578063e8a3d48514610405578063e985e9c514610430578063f2fde38b1461046d5761011f565b806370a08231146102d9578063715018a6146103165780638da5cb5b1461032d57806395d89b4114610358578063a22cb465146103835761011f565b806323b872dd116100e757806323b872dd1461021057806331c864e81461022c57806332cb6b0c1461025557806342842e0e146102805780636352211e1461029c5761011f565b806301ffc9a71461012457806306fdde0314610161578063081812fc1461018c578063095ea7b3146101c957806318160ddd146101e5575b600080fd5b34801561013057600080fd5b5061014b60048036038101906101469190611826565b610496565b604051610158919061186e565b60405180910390f35b34801561016d57600080fd5b50610176610528565b6040516101839190611919565b60405180910390f35b34801561019857600080fd5b506101b360048036038101906101ae9190611971565b6105ba565b6040516101c091906119df565b60405180910390f35b6101e360048036038101906101de9190611a26565b610618565b005b3480156101f157600080fd5b506101fa610628565b6040516102079190611a75565b60405180910390f35b61022a60048036038101906102259190611a90565b610637565b005b34801561023857600080fd5b50610253600480360381019061024e9190611971565b6108f8565b005b34801561026157600080fd5b5061026a61099d565b6040516102779190611a75565b60405180910390f35b61029a60048036038101906102959190611a90565b6109a3565b005b3480156102a857600080fd5b506102c360048036038101906102be9190611971565b6109c3565b6040516102d091906119df565b60405180910390f35b3480156102e557600080fd5b5061030060048036038101906102fb9190611ae3565b6109d5565b60405161030d9190611a75565b60405180910390f35b34801561032257600080fd5b5061032b610a6c565b005b34801561033957600080fd5b50610342610a80565b60405161034f91906119df565b60405180910390f35b34801561036457600080fd5b5061036d610aaa565b60405161037a9190611919565b60405180910390f35b34801561038f57600080fd5b506103aa60048036038101906103a59190611b3c565b610b3c565b005b6103c660048036038101906103c19190611cb1565b610c47565b005b3480156103d457600080fd5b506103ef60048036038101906103ea9190611971565b610c99565b6040516103fc9190611919565b60405180910390f35b34801561041157600080fd5b5061041a610cca565b6040516104279190611919565b60405180910390f35b34801561043c57600080fd5b5061045760048036038101906104529190611d34565b610d09565b604051610464919061186e565b60405180910390f35b34801561047957600080fd5b50610494600480360381019061048f9190611ae3565b610d9d565b005b60006301ffc9a760e01b827bffffffffffffffffffffffffffffffffffffffffffffffffffffffff191614806104f157506380ac58cd60e01b827bffffffffffffffffffffffffffffffffffffffffffffffffffffffff1916145b806105215750635b5e139f60e01b827bffffffffffffffffffffffffffffffffffffffffffffffffffffffff1916145b9050919050565b60606002805461053790611da3565b80601f016020809104026020016040519081016040528092919081815260200182805461056390611da3565b80156105b05780601f10610585576101008083540402835291602001916105b0565b820191906000526020600020905b81548152906001019060200180831161059357829003601f168201915b5050505050905090565b60006105c582610e23565b6105da576105d963cf4700e460e01b610ecf565b5b6006600083815260200190815260200160002060000160009054906101000a900473ffffffffffffffffffffffffffffffffffffffff169050919050565b61062482826001610ed9565b5050565b6000610632611008565b905090565b600061064282611051565b905073ffffffffffffffffffffffffffffffffffffffff8473ffffffffffffffffffffffffffffffffffffffff161693508373ffffffffffffffffffffffffffffffffffffffff168173ffffffffffffffffffffffffffffffffffffffff16146106b7576106b663a114810060e01b610ecf565b5b6000806106c38461116a565b915091506106d981876106d4611191565b611199565b610704576106ee866106e9611191565b610d09565b610703576107026359c896be60e01b610ecf565b5b5b61071186868660016111dd565b801561071c57600082555b600560008773ffffffffffffffffffffffffffffffffffffffff1673ffffffffffffffffffffffffffffffffffffffff168152602001908152602001600020600081546001900391905081905550600560008673ffffffffffffffffffffffffffffffffffffffff1673ffffffffffffffffffffffffffffffffffffffff16815260200190815260200160002060008154600101919050819055506107ea856107c68888876111e3565b7c02000000000000000000000000000000000000000000000000000000001761120b565b600460008681526020019081526020016000208190555060007c0200000000000000000000000000000000000000000000000000000000841603610870576000600185019050600060046000838152602001908152602001600020540361086e57600054811461086d578360046000838152602001908152602001600020819055505b5b505b600073ffffffffffffffffffffffffffffffffffffffff8673ffffffffffffffffffffffffffffffffffffffff161690508481887fddf252ad1be2c89b69c2b068fc378daa952ba7f163c4a11628f55a4df523b3ef600080a4600081036108e2576108e163ea553b3460e01b610ecf565b5b6108ef8787876001611236565b50505050505050565b61090061123c565b6103e88161090c611008565b6109169190611e03565b1115610957576040517f08c379a000000000000000000000000000000000000000000000000000000000815260040161094e90611e83565b60405180910390fd5b61096133826112c3565b7f4cc0a9c4a99ddc700de1af2c9f916a7cbfdb71f14801ccff94061ad1ef8a80403382604051610992929190611ea3565b60405180910390a150565b6103e881565b6109be83838360405180602001604052806000815250610c47565b505050565b60006109ce82611051565b9050919050565b60008073ffffffffffffffffffffffffffffffffffffffff168273ffffffffffffffffffffffffffffffffffffffff1603610a1b57610a1a638f4eb60460e01b610ecf565b5b67ffffffffffffffff600560008473ffffffffffffffffffffffffffffffffffffffff1673ffffffffffffffffffffffffffffffffffffffff16815260200190815260200160002054169050919050565b610a7461123c565b610a7e6000611449565b565b6000600960009054906101000a900473ffffffffffffffffffffffffffffffffffffffff16905090565b606060038054610ab990611da3565b80601f0160208091040260200160405190810160405280929190818152602001828054610ae590611da3565b8015610b325780601f10610b0757610100808354040283529160200191610b32565b820191906000526020600020905b815481529060010190602001808311610b1557829003601f168201915b5050505050905090565b8060076000610b49611191565b73ffffffffffffffffffffffffffffffffffffffff1673ffffffffffffffffffffffffffffffffffffffff16815260200190815260200160002060008473ffffffffffffffffffffffffffffffffffffffff1673ffffffffffffffffffffffffffffffffffffffff16815260200190815260200160002060006101000a81548160ff0219169083151502179055508173ffffffffffffffffffffffffffffffffffffffff16610bf6611191565b73ffffffffffffffffffffffffffffffffffffffff167f17307eab39ab6107e8899845ad3d59bd9653f200f220920489ca2b5937696c3183604051610c3b919061186e565b60405180910390a35050565b610c52848484610637565b60008373ffffffffffffffffffffffffffffffffffffffff163b14610c9357610c7d8484848461150f565b610c9257610c9163d1a57ed660e01b610ecf565b5b5b50505050565b6060610ca48261163e565b604051602001610cb49190611f2e565b6040516020818303038152906040529050919050565b60606040518060600160405280603681526020016120d160369139604051602001610cf59190611f7a565b604051602081830303815290604052905090565b6000600760008473ffffffffffffffffffffffffffffffffffffffff1673ffffffffffffffffffffffffffffffffffffffff16815260200190815260200160002060008373ffffffffffffffffffffffffffffffffffffffff1673ffffffffffffffffffffffffffffffffffffffff16815260200190815260200160002060009054906101000a900460ff16905092915050565b610da561123c565b600073ffffffffffffffffffffffffffffffffffffffff168173ffffffffffffffffffffffffffffffffffffffff1603610e175760006040517f1e4fbdf7000000000000000000000000000000000000000000000000000000008152600401610e0e91906119df565b60405180910390fd5b610e2081611449565b50565b600081610e2e6116bb565b11610ec957610e3b6116c0565b821115610e6557610e5e60046000848152602001908152602001600020546116e8565b9050610eca565b600054821015610ec85760005b6000600460008581526020019081526020016000205491508103610ea15782610e9a90611fa0565b9250610e72565b60007c01000000000000000000000000000000000000000000000000000000008216149150505b5b5b919050565b8060005260046000fd5b6000610ee4836109c3565b9050818015610f2657508073ffffffffffffffffffffffffffffffffffffffff16610f0d611191565b73ffffffffffffffffffffffffffffffffffffffff1614155b15610f5257610f3c81610f37611191565b610d09565b610f5157610f5063cfb3b94260e01b610ecf565b5b5b836006600085815260200190815260200160002060000160006101000a81548173ffffffffffffffffffffffffffffffffffffffff021916908373ffffffffffffffffffffffffffffffffffffffff160217905550828473ffffffffffffffffffffffffffffffffffffffff168273ffffffffffffffffffffffffffffffffffffffff167f8c5be1e5ebec7d5bd14f71427d1e84f3dd0314c0f7b2291e5b200ac8c7c3b92560405160405180910390a450505050565b60006110126116bb565b6000540390507fffffffffffffffffffffffffffffffffffffffffffffffffffffffffffffffff6110416116c0565b1461104e57600854810190505b90565b60008161105c6116bb565b11611154576004600083815260200190815260200160002054905061107f6116c0565b8211156110a45761108f816116e8565b611165576110a363df2d9b4260e01b610ecf565b5b6000810361112b5760005482106110c6576110c563df2d9b4260e01b610ecf565b5b5b600460008360019003935083815260200190815260200160002054905060008103156111265760007c0100000000000000000000000000000000000000000000000000000000821603156111655761112563df2d9b4260e01b610ecf565b5b6110c7565b60007c010000000000000000000000000000000000000000000000000000000082160315611165575b61116463df2d9b4260e01b610ecf565b5b919050565b60008060006006600085815260200190815260200160002090508092508254915050915091565b600033905090565b600073ffffffffffffffffffffffffffffffffffffffff8316925073ffffffffffffffffffffffffffffffffffffffff821691508382148383141790509392505050565b50505050565b60008060e883901c905060e86111fa868684611729565b62ffffff16901b9150509392505050565b600073ffffffffffffffffffffffffffffffffffffffff83169250814260a01b178317905092915050565b50505050565b611244611732565b73ffffffffffffffffffffffffffffffffffffffff16611262610a80565b73ffffffffffffffffffffffffffffffffffffffff16146112c157611285611732565b6040517f118cdaa70000000000000000000000000000000000000000000000000000000081526004016112b891906119df565b60405180910390fd5b565b600080549050600082036112e2576112e163b562e8dd60e01b610ecf565b5b6112ef60008483856111dd565b61130f8361130060008660006111e3565b6113098561173a565b1761120b565b6004600083815260200190815260200160002081905550600160406001901b178202600560008573ffffffffffffffffffffffffffffffffffffffff1673ffffffffffffffffffffffffffffffffffffffff16815260200190815260200160002060008282540192505081905550600073ffffffffffffffffffffffffffffffffffffffff8473ffffffffffffffffffffffffffffffffffffffff16169050600081036113c7576113c6632e07630060e01b610ecf565b5b6000838301905060008390506113db6116c0565b6001830311156113f6576113f56381647e3a60e01b610ecf565b5b5b808360007fddf252ad1be2c89b69c2b068fc378daa952ba7f163c4a11628f55a4df523b3ef600080a48181600101915081036113f757816000819055505050506114446000848385611236565b505050565b6000600960009054906101000a900473ffffffffffffffffffffffffffffffffffffffff16905081600960006101000a81548173ffffffffffffffffffffffffffffffffffffffff021916908373ffffffffffffffffffffffffffffffffffffffff1602179055508173ffffffffffffffffffffffffffffffffffffffff168173ffffffffffffffffffffffffffffffffffffffff167f8be0079c531659141344cd1fd0a4f28419497f9722a3daafe3b4186f6b6457e060405160405180910390a35050565b60008373ffffffffffffffffffffffffffffffffffffffff1663150b7a02611535611191565b8786866040518563ffffffff1660e01b8152600401611557949392919061201e565b6020604051808303816000875af192505050801561159357506040513d601f19601f82011682018060405250810190611590919061207f565b60015b6115eb573d80600081146115c3576040519150601f19603f3d011682016040523d82523d6000602084013e6115c8565b606091505b5060008151036115e3576115e263d1a57ed660e01b610ecf565b5b805181602001fd5b63150b7a0260e01b7bffffffffffffffffffffffffffffffffffffffffffffffffffffffff1916817bffffffffffffffffffffffffffffffffffffffffffffffffffffffff191614915050949350505050565b606061164982610e23565b61165e5761165d63a14c4b5060e01b610ecf565b5b600061166861174a565b9050600081510361168857604051806020016040528060008152506116b3565b806116928461176a565b6040516020016116a39291906120ac565b6040516020818303038152906040525b915050919050565b600090565b60007fffffffffffffffffffffffffffffffffffffffffffffffffffffffffffffffff905090565b60007c0100000000000000000000000000000000000000000000000000000000821673ffffffffffffffffffffffffffffffffffffffff8316119050919050565b60009392505050565b600033905090565b60006001821460e11b9050919050565b60606040518060600160405280603681526020016120d160369139905090565b606060a060405101806040526020810391506000825281835b6001156117a557600184039350600a81066030018453600a8104905080611783575b50828103602084039350808452505050919050565b6000604051905090565b600080fd5b600080fd5b60007fffffffff0000000000000000000000000000000000000000000000000000000082169050919050565b611803816117ce565b811461180e57600080fd5b50565b600081359050611820816117fa565b92915050565b60006020828403121561183c5761183b6117c4565b5b600061184a84828501611811565b91505092915050565b60008115159050919050565b61186881611853565b82525050565b6000602082019050611883600083018461185f565b92915050565b600081519050919050565b600082825260208201905092915050565b60005b838110156118c35780820151818401526020810190506118a8565b60008484015250505050565b6000601f19601f8301169050919050565b60006118eb82611889565b6118f58185611894565b93506119058185602086016118a5565b61190e816118cf565b840191505092915050565b6000602082019050818103600083015261193381846118e0565b905092915050565b6000819050919050565b61194e8161193b565b811461195957600080fd5b50565b60008135905061196b81611945565b92915050565b600060208284031215611987576119866117c4565b5b60006119958482850161195c565b91505092915050565b600073ffffffffffffffffffffffffffffffffffffffff82169050919050565b60006119c98261199e565b9050919050565b6119d9816119be565b82525050565b60006020820190506119f460008301846119d0565b92915050565b611a03816119be565b8114611a0e57600080fd5b50565b600081359050611a20816119fa565b92915050565b60008060408385031215611a3d57611a3c6117c4565b5b6000611a4b85828601611a11565b9250506020611a5c8582860161195c565b9150509250929050565b611a6f8161193b565b82525050565b6000602082019050611a8a6000830184611a66565b92915050565b600080600060608486031215611aa957611aa86117c4565b5b6000611ab786828701611a11565b9350506020611ac886828701611a11565b9250506040611ad98682870161195c565b9150509250925092565b600060208284031215611af957611af86117c4565b5b6000611b0784828501611a11565b91505092915050565b611b1981611853565b8114611b2457600080fd5b50565b600081359050611b3681611b10565b92915050565b60008060408385031215611b5357611b526117c4565b5b6000611b6185828601611a11565b9250506020611b7285828601611b27565b9150509250929050565b600080fd5b600080fd5b7f4e487b7100000000000000000000000000000000000000000000000000000000600052604160045260246000fd5b611bbe826118cf565b810181811067ffffffffffffffff82111715611bdd57611bdc611b86565b5b80604052505050565b6000611bf06117ba565b9050611bfc8282611bb5565b919050565b600067ffffffffffffffff821115611c1c57611c1b611b86565b5b611c25826118cf565b9050602081019050919050565b82818337600083830152505050565b6000611c54611c4f84611c01565b611be6565b905082815260208101848484011115611c7057611c6f611b81565b5b611c7b848285611c32565b509392505050565b600082601f830112611c9857611c97611b7c565b5b8135611ca8848260208601611c41565b91505092915050565b60008060008060808587031215611ccb57611cca6117c4565b5b6000611cd987828801611a11565b9450506020611cea87828801611a11565b9350506040611cfb8782880161195c565b925050606085013567ffffffffffffffff811115611d1c57611d1b6117c9565b5b611d2887828801611c83565b91505092959194509250565b60008060408385031215611d4b57611d4a6117c4565b5b6000611d5985828601611a11565b9250506020611d6a85828601611a11565b9150509250929050565b7f4e487b7100000000000000000000000000000000000000000000000000000000600052602260045260246000fd5b60006002820490506001821680611dbb57607f821691505b602082108103611dce57611dcd611d74565b5b50919050565b7f4e487b7100000000000000000000000000000000000000000000000000000000600052601160045260246000fd5b6000611e0e8261193b565b9150611e198361193b565b9250828201905080821115611e3157611e30611dd4565b5b92915050565b7f4d617820737570706c7920726561636865640000000000000000000000000000600082015250565b6000611e6d601283611894565b9150611e7882611e37565b602082019050919050565b60006020820190508181036000830152611e9c81611e60565b9050919050565b6000604082019050611eb860008301856119d0565b611ec56020830184611a66565b9392505050565b600081905092915050565b6000611ee282611889565b611eec8185611ecc565b9350611efc8185602086016118a5565b80840191505092915050565b7f2e6a736f6e000000000000000000000000000000000000000000000000000000815250565b6000611f3a8284611ed7565b9150611f4582611f08565b60058201915081905092915050565b7f636f6c6c656374696f6e2e6a736f6e0000000000000000000000000000000000815250565b6000611f868284611ed7565b9150611f9182611f54565b600f8201915081905092915050565b6000611fab8261193b565b915060008203611fbe57611fbd611dd4565b5b600182039050919050565b600081519050919050565b600082825260208201905092915050565b6000611ff082611fc9565b611ffa8185611fd4565b935061200a8185602086016118a5565b612013816118cf565b840191505092915050565b600060808201905061203360008301876119d0565b61204060208301866119d0565b61204d6040830185611a66565b818103606083015261205f8184611fe5565b905095945050505050565b600081519050612079816117fa565b92915050565b600060208284031215612095576120946117c4565b5b60006120a38482850161206a565b91505092915050565b60006120b88285611ed7565b91506120c48284611ed7565b9150819050939250505056fe697066733a2f2f516d6653503368417563725031524566316a334b64435a444269613762695246504a754c344253426974446b76322fa2646970667358221220c4db2294c3e724198ebfee85cf9f28e032cc2ce086777dda0ef4dbf7be73b98b64736f6c63430008140033",
  "linkReferences": {},
  "deployedLinkReferences": {}
}