{
  "_format": "hh-sol-artifact-1",
  "contractName": "ScottNFT",
  "sourceName": "contracts/ScottNFT.sol",
  "abi": [
    {
      "inputs": [
        {
          "internalType": "string",
          "name": "baseURI",
          "type": "string"
        }
      ],
      "stateMutability": "nonpayable",
      "type": "constructor"
    },
    {
      "inputs": [
        {
          "internalType": "address",
          "name": "sender",
          "type": "address"
        },
        {
          "internalType": "uint256",
          "name": "tokenId",
          "type": "uint256"
        },
        {
          "internalType": "address",
          "name": "owner",
          "type": "address"
        }
      ],
      "name": "ERC721IncorrectOwner",
      "type": "error"
    },
    {
      "inputs": [
        {
          "internalType": "address",
          "name": "operator",
          "type": "address"
        },
        {
          "internalType": "uint256",
          "name": "tokenId",
          "type": "uint256"
        }
      ],
      "name": "ERC721InsufficientApproval",
      "type": "error"
    },
    {
      "inputs": [
        {
          "internalType": "address",
          "name": "approver",
          "type": "address"
        }
      ],
      "name": "ERC721InvalidApprover",
      "type": "error"
    },
    {
      "inputs": [
        {
          "internalType": "address",
          "name": "operator",
          "type": "address"
        }
      ],
      "name": "ERC721InvalidOperator",
      "type": "error"
    },
    {
      "inputs": [
        {
          "internalType": "address",
          "name": "owner",
          "type": "address"
        }
      ],
      "name": "ERC721InvalidOwner",
      "type": "error"
    },
    {
      "inputs": [
        {
          "internalType": "address",
          "name": "receiver",
          "type": "address"
        }
      ],
      "name": "ERC721InvalidReceiver",
      "type": "error"
    },
    {
      "inputs": [
        {
          "internalType": "address",
          "name": "sender",
          "type": "address"
        }
      ],
      "name": "ERC721InvalidSender",
      "type": "error"
    },
    {
      "inputs": [
        {
          "internalType": "uint256",
          "name": "tokenId",
          "type": "uint256"
        }
      ],
      "name": "ERC721NonexistentToken",
      "type": "error"
    },
    {
      "inputs": [
        {
          "internalType": "address",
          "name": "owner",
          "type": "address"
        }
      ],
      "name": "OwnableInvalidOwner",
      "type": "error"
    },
    {
      "inputs": [
        {
          "internalType": "address",
          "name": "account",
          "type": "address"
        }
      ],
      "name": "OwnableUnauthorizedAccount",
      "type": "error"
    },
    {
      "anonymous": false,
      "inputs": [
        {
          "indexed": true,
          "internalType": "address",
          "name": "owner",
          "type": "address"
        },
        {
          "indexed": true,
          "internalType": "address",
          "name": "approved",
          "type": "address"
        },
        {
          "indexed": true,
          "internalType": "uint256",
          "name": "tokenId",
          "type": "uint256"
        }
      ],
      "name": "Approval",
      "type": "event"
    },
    {
      "anonymous": false,
      "inputs": [
        {
          "indexed": true,
          "internalType": "address",
          "name": "owner",
          "type": "address"
        },
        {
          "indexed": true,
          "internalType": "address",
          "name": "operator",
          "type": "address"
        },
        {
          "indexed": false,
          "internalType": "bool",
          "name": "approved",
          "type": "bool"
        }
      ],
      "name": "ApprovalForAll",
      "type": "event"
    },
    {
      "anonymous": false,
      "inputs": [
        {
          "indexed": false,
          "internalType": "uint256",
          "name": "_fromTokenId",
          "type": "uint256"
        },
        {
          "indexed": false,
          "internalType": "uint256",
          "name": "_toTokenId",
          "type": "uint256"
        }
      ],
      "name": "BatchMetadataUpdate",
      "type": "event"
    },
    {
      "anonymous": false,
      "inputs": [
        {
          "indexed": false,
          "internalType": "uint256",
          "name": "_tokenId",
          "type": "uint256"
        }
      ],
      "name": "MetadataUpdate",
      "type": "event"
    },
    {
      "anonymous": false,
      "inputs": [
        {
          "indexed": true,
          "internalType": "address",
          "name": "previousOwner",
          "type": "address"
        },
        {
          "indexed": true,
          "internalType": "address",
          "name": "newOwner",
          "type": "address"
        }
      ],
      "name": "OwnershipTransferred",
      "type": "event"
    },
    {
      "anonymous": false,
      "inputs": [
        {
          "indexed": true,
          "internalType": "address",
          "name": "from",
          "type": "address"
        },
        {
          "indexed": true,
          "internalType": "address",
          "name": "to",
          "type": "address"
        },
        {
          "indexed": true,
          "internalType": "uint256",
          "name": "tokenId",
          "type": "uint256"
        }
      ],
      "name": "Transfer",
      "type": "event"
    },
    {
      "inputs": [
        {
          "internalType": "address",
          "name": "to",
          "type": "address"
        },
        {
          "internalType": "uint256",
          "name": "tokenId",
          "type": "uint256"
        }
      ],
      "name": "approve",
      "outputs": [],
      "stateMutability": "nonpayable",
      "type": "function"
    },
    {
      "inputs": [
        {
          "internalType": "address",
          "name": "owner",
          "type": "address"
        }
      ],
      "name": "balanceOf",
      "outputs": [
        {
          "internalType": "uint256",
          "name": "",
          "type": "uint256"
        }
      ],
      "stateMutability": "view",
      "type": "function"
    },
    {
      "inputs": [
        {
          "internalType": "uint256",
          "name": "tokenId",
          "type": "uint256"
        }
      ],
      "name": "getApproved",
      "outputs": [
        {
          "internalType": "address",
          "name": "",
          "type": "address"
        }
      ],
      "stateMutability": "view",
      "type": "function"
    },
    {
      "inputs": [
        {
          "internalType": "address",
          "name": "owner",
          "type": "address"
        },
        {
          "internalType": "address",
          "name": "operator",
          "type": "address"
        }
      ],
      "name": "isApprovedForAll",
      "outputs": [
        {
          "internalType": "bool",
          "name": "",
          "type": "bool"
        }
      ],
      "stateMutability": "view",
      "type": "function"
    },
    {
      "inputs": [],
      "name": "name",
      "outputs": [
        {
          "internalType": "string",
          "name": "",
          "type": "string"
        }
      ],
      "stateMutability": "view",
      "type": "function"
    },
    {
      "inputs": [],
      "name": "owner",
      "outputs": [
        {
          "internalType": "address",
          "name": "",
          "type": "address"
        }
      ],
      "stateMutability": "view",
      "type": "function"
    },
    {
      "inputs": [
        {
          "internalType": "uint256",
          "name": "tokenId",
          "type": "uint256"
        }
      ],
      "name": "ownerOf",
      "outputs": [
        {
          "internalType": "address",
          "name": "",
          "type": "address"
        }
      ],
      "stateMutability": "view",
      "type": "function"
    },
    {
      "inputs": [],
      "name": "renounceOwnership",
      "outputs": [],
      "stateMutability": "nonpayable",
      "type": "function"
    },
    {
      "inputs": [
        {
          "internalType": "address",
          "name": "to",
          "type": "address"
        },
        {
          "internalType": "string",
          "name": "uri",
          "type": "string"
        }
      ],
      "name": "safeMint",
      "outputs": [],
      "stateMutability": "nonpayable",
      "type": "function"
    },
    {
      "inputs": [
        {
          "internalType": "address",
          "name": "from",
          "type": "address"
        },
        {
          "internalType": "address",
          "name": "to",
          "type": "address"
        },
        {
          "internalType": "uint256",
          "name": "tokenId",
          "type": "uint256"
        }
      ],
      "name": "safeTransferFrom",
      "outputs": [],
      "stateMutability": "nonpayable",
      "type": "function"
    },
    {
      "inputs": [
        {
          "internalType": "address",
          "name": "from",
          "type": "address"
        },
        {
          "internalType": "address",
          "name": "to",
          "type": "address"
        },
        {
          "internalType": "uint256",
          "name": "tokenId",
          "type": "uint256"
        },
        {
          "internalType": "bytes",
          "name": "data",
          "type": "bytes"
        }
      ],
      "name": "safeTransferFrom",
      "outputs": [],
      "stateMutability": "nonpayable",
      "type": "function"
    },
    {
      "inputs": [
        {
          "internalType": "address",
          "name": "operator",
          "type": "address"
        },
        {
          "internalType": "bool",
          "name": "approved",
          "type": "bool"
        }
      ],
      "name": "setApprovalForAll",
      "outputs": [],
      "stateMutability": "nonpayable",
      "type": "function"
    },
    {
      "inputs": [
        {
          "internalType": "string",
          "name": "baseURI",
          "type": "string"
        }
      ],
      "name": "setBaseURI",
      "outputs": [],
      "stateMutability": "nonpayable",
      "type": "function"
    },
    {
      "inputs": [
        {
          "internalType": "bytes4",
          "name": "interfaceId",
          "type": "bytes4"
        }
      ],
      "name": "supportsInterface",
      "outputs": [
        {
          "internalType": "bool",
          "name": "",
          "type": "bool"
        }
      ],
      "stateMutability": "view",
      "type": "function"
    },
    {
      "inputs": [],
      "name": "symbol",
      "outputs": [
        {
          "internalType": "string",
          "name": "",
          "type": "string"
        }
      ],
      "stateMutability": "view",
      "type": "function"
    },
    {
      "inputs": [
        {
          "internalType": "uint256",
          "name": "tokenId",
          "type": "uint256"
        }
      ],
      "name": "tokenURI",
      "outputs": [
        {
          "internalType": "string",
          "name": "",
          "type": "string"
        }
      ],
      "stateMutability": "view",
      "type": "function"
    },
    {
      "inputs": [
        {
          "internalType": "address",
          "name": "from",
          "type": "address"
        },
        {
          "internalType": "address",
          "name": "to",
          "type": "address"
        },
        {
          "internalType": "uint256",
          "name": "tokenId",
          "type": "uint256"
        }
      ],
      "name": "transferFrom",
      "outputs": [],
      "stateMutability": "nonpayable",
      "type": "function"
    },
    {
      "inputs": [
        {
          "internalType": "address",
          "name": "newOwner",
          "type": "address"
        }
      ],
      "name": "transferOwnership",
      "outputs": [],
      "stateMutability": "nonpayable",
      "type": "function"
    }
  ],
  "bytecode": "0x60806040523480156200001157600080fd5b5060405162002f4638038062002f468339818101604052810190620000379190620003c3565b336040518060400160405280600881526020017f53636f74744e46540000000000000000000000000000000000000000000000008152506040518060400160405280600581526020017f53434f54540000000000000000000000000000000000000000000000000000008152508160009081620000b591906200065f565b508060019081620000c791906200065f565b505050600073ffffffffffffffffffffffffffffffffffffffff168173ffffffffffffffffffffffffffffffffffffffff16036200013f5760006040517f1e4fbdf70000000000000000000000000000000000000000000000000000000081526004016200013691906200078b565b60405180910390fd5b62000150816200016a60201b60201c565b5080600990816200016291906200065f565b5050620007a8565b6000600760009054906101000a900473ffffffffffffffffffffffffffffffffffffffff16905081600760006101000a81548173ffffffffffffffffffffffffffffffffffffffff021916908373ffffffffffffffffffffffffffffffffffffffff1602179055508173ffffffffffffffffffffffffffffffffffffffff168173ffffffffffffffffffffffffffffffffffffffff167f8be0079c531659141344cd1fd0a4f28419497f9722a3daafe3b4186f6b6457e060405160405180910390a35050565b6000604051905090565b600080fd5b600080fd5b600080fd5b600080fd5b6000601f19601f8301169050919050565b7f4e487b7100000000000000000000000000000000000000000000000000000000600052604160045260246000fd5b62000299826200024e565b810181811067ffffffffffffffff82111715620002bb57620002ba6200025f565b5b80604052505050565b6000620002d062000230565b9050620002de82826200028e565b919050565b600067ffffffffffffffff8211156200030157620003006200025f565b5b6200030c826200024e565b9050602081019050919050565b60005b83811015620003395780820151818401526020810190506200031c565b60008484015250505050565b60006200035c6200035684620002e3565b620002c4565b9050828152602081018484840111156200037b576200037a62000249565b5b6200038884828562000319565b509392505050565b600082601f830112620003a857620003a762000244565b5b8151620003ba84826020860162000345565b91505092915050565b600060208284031215620003dc57620003db6200023a565b5b600082015167ffffffffffffffff811115620003fd57620003fc6200023f565b5b6200040b8482850162000390565b91505092915050565b600081519050919050565b7f4e487b7100000000000000000000000000000000000000000000000000000000600052602260045260246000fd5b600060028204905060018216806200046757607f821691505b6020821081036200047d576200047c6200041f565b5b50919050565b60008190508160005260206000209050919050565b60006020601f8301049050919050565b600082821b905092915050565b600060088302620004e77fffffffffffffffffffffffffffffffffffffffffffffffffffffffffffffffff82620004a8565b620004f38683620004a8565b95508019841693508086168417925050509392505050565b6000819050919050565b6000819050919050565b6000620005406200053a62000534846200050b565b62000515565b6200050b565b9050919050565b6000819050919050565b6200055c836200051f565b620005746200056b8262000547565b848454620004b5565b825550505050565b600090565b6200058b6200057c565b6200059881848462000551565b505050565b5b81811015620005c057620005b460008262000581565b6001810190506200059e565b5050565b601f8211156200060f57620005d98162000483565b620005e48462000498565b81016020851015620005f4578190505b6200060c620006038562000498565b8301826200059d565b50505b505050565b600082821c905092915050565b6000620006346000198460080262000614565b1980831691505092915050565b60006200064f838362000621565b9150826002028217905092915050565b6200066a8262000414565b67ffffffffffffffff8111156200068657620006856200025f565b5b6200069282546200044e565b6200069f828285620005c4565b600060209050601f831160018114620006d75760008415620006c2578287015190505b620006ce858262000641565b8655506200073e565b601f198416620006e78662000483565b60005b828110156200071157848901518255600182019150602085019450602081019050620006ea565b868310156200073157848901516200072d601f89168262000621565b8355505b6001600288020188555050505b505050505050565b600073ffffffffffffffffffffffffffffffffffffffff82169050919050565b6000620007738262000746565b9050919050565b620007858162000766565b82525050565b6000602082019050620007a260008301846200077a565b92915050565b61278e80620007b86000396000f3fe608060405234801561001057600080fd5b50600436106101165760003560e01c8063715018a6116100a2578063b88d4fde11610071578063b88d4fde146102cb578063c87b56dd146102e7578063d204c45e14610317578063e985e9c514610333578063f2fde38b1461036357610116565b8063715018a6146102695780638da5cb5b1461027357806395d89b4114610291578063a22cb465146102af57610116565b806323b872dd116100e957806323b872dd146101b557806342842e0e146101d157806355f804b3146101ed5780636352211e1461020957806370a082311461023957610116565b806301ffc9a71461011b57806306fdde031461014b578063081812fc14610169578063095ea7b314610199575b600080fd5b61013560048036038101906101309190611b9d565b61037f565b6040516101429190611be5565b60405180910390f35b610153610391565b6040516101609190611c90565b60405180910390f35b610183600480360381019061017e9190611ce8565b610423565b6040516101909190611d56565b60405180910390f35b6101b360048036038101906101ae9190611d9d565b61043f565b005b6101cf60048036038101906101ca9190611ddd565b610455565b005b6101eb60048036038101906101e69190611ddd565b610557565b005b61020760048036038101906102029190611f65565b610577565b005b610223600480360381019061021e9190611ce8565b610592565b6040516102309190611d56565b60405180910390f35b610253600480360381019061024e9190611fae565b6105a4565b6040516102609190611fea565b60405180910390f35b61027161065e565b005b61027b610672565b6040516102889190611d56565b60405180910390f35b61029961069c565b6040516102a69190611c90565b60405180910390f35b6102c960048036038101906102c49190612031565b61072e565b005b6102e560048036038101906102e09190612112565b610744565b005b61030160048036038101906102fc9190611ce8565b610769565b60405161030e9190611c90565b60405180910390f35b610331600480360381019061032c9190612195565b61077b565b005b61034d600480360381019061034891906121f1565b6107b7565b60405161035a9190611be5565b60405180910390f35b61037d60048036038101906103789190611fae565b61084b565b005b600061038a826108d1565b9050919050565b6060600080546103a090612260565b80601f01602080910402602001604051908101604052809291908181526020018280546103cc90612260565b80156104195780601f106103ee57610100808354040283529160200191610419565b820191906000526020600020905b8154815290600101906020018083116103fc57829003601f168201915b5050505050905090565b600061042e82610932565b50610438826109ba565b9050919050565b610451828261044c6109f7565b6109ff565b5050565b600073ffffffffffffffffffffffffffffffffffffffff168273ffffffffffffffffffffffffffffffffffffffff16036104c75760006040517f64a0ae920000000000000000000000000000000000000000000000000000000081526004016104be9190611d56565b60405180910390fd5b60006104db83836104d66109f7565b610a11565b90508373ffffffffffffffffffffffffffffffffffffffff168173ffffffffffffffffffffffffffffffffffffffff1614610551578382826040517f64283d7b00000000000000000000000000000000000000000000000000000000815260040161054893929190612291565b60405180910390fd5b50505050565b61057283838360405180602001604052806000815250610744565b505050565b61057f610c2b565b806009908161058e9190612474565b5050565b600061059d82610932565b9050919050565b60008073ffffffffffffffffffffffffffffffffffffffff168273ffffffffffffffffffffffffffffffffffffffff16036106175760006040517f89c62b6400000000000000000000000000000000000000000000000000000000815260040161060e9190611d56565b60405180910390fd5b600360008373ffffffffffffffffffffffffffffffffffffffff1673ffffffffffffffffffffffffffffffffffffffff168152602001908152602001600020549050919050565b610666610c2b565b6106706000610cb2565b565b6000600760009054906101000a900473ffffffffffffffffffffffffffffffffffffffff16905090565b6060600180546106ab90612260565b80601f01602080910402602001604051908101604052809291908181526020018280546106d790612260565b80156107245780601f106106f957610100808354040283529160200191610724565b820191906000526020600020905b81548152906001019060200180831161070757829003601f168201915b5050505050905090565b6107406107396109f7565b8383610d78565b5050565b61074f848484610455565b61076361075a6109f7565b85858585610ee7565b50505050565b606061077482611098565b9050919050565b610783610c2b565b60006008600081548092919061079890612575565b9190505590506107a883826111ab565b6107b281836111c9565b505050565b6000600560008473ffffffffffffffffffffffffffffffffffffffff1673ffffffffffffffffffffffffffffffffffffffff16815260200190815260200160002060008373ffffffffffffffffffffffffffffffffffffffff1673ffffffffffffffffffffffffffffffffffffffff16815260200190815260200160002060009054906101000a900460ff16905092915050565b610853610c2b565b600073ffffffffffffffffffffffffffffffffffffffff168173ffffffffffffffffffffffffffffffffffffffff16036108c55760006040517f1e4fbdf70000000000000000000000000000000000000000000000000000000081526004016108bc9190611d56565b60405180910390fd5b6108ce81610cb2565b50565b6000634906490660e01b7bffffffffffffffffffffffffffffffffffffffffffffffffffffffff1916827bffffffffffffffffffffffffffffffffffffffffffffffffffffffff1916148061092b575061092a82611225565b5b9050919050565b60008061093e83611307565b9050600073ffffffffffffffffffffffffffffffffffffffff168173ffffffffffffffffffffffffffffffffffffffff16036109b157826040517f7e2732890000000000000000000000000000000000000000000000000000000081526004016109a89190611fea565b60405180910390fd5b80915050919050565b60006004600083815260200190815260200160002060009054906101000a900473ffffffffffffffffffffffffffffffffffffffff169050919050565b600033905090565b610a0c8383836001611344565b505050565b600080610a1d84611307565b9050600073ffffffffffffffffffffffffffffffffffffffff168373ffffffffffffffffffffffffffffffffffffffff1614610a5f57610a5e818486611509565b5b600073ffffffffffffffffffffffffffffffffffffffff168173ffffffffffffffffffffffffffffffffffffffff1614610af057610aa1600085600080611344565b6001600360008373ffffffffffffffffffffffffffffffffffffffff1673ffffffffffffffffffffffffffffffffffffffff168152602001908152602001600020600082825403925050819055505b600073ffffffffffffffffffffffffffffffffffffffff168573ffffffffffffffffffffffffffffffffffffffff1614610b73576001600360008773ffffffffffffffffffffffffffffffffffffffff1673ffffffffffffffffffffffffffffffffffffffff168152602001908152602001600020600082825401925050819055505b846002600086815260200190815260200160002060006101000a81548173ffffffffffffffffffffffffffffffffffffffff021916908373ffffffffffffffffffffffffffffffffffffffff160217905550838573ffffffffffffffffffffffffffffffffffffffff168273ffffffffffffffffffffffffffffffffffffffff167fddf252ad1be2c89b69c2b068fc378daa952ba7f163c4a11628f55a4df523b3ef60405160405180910390a4809150509392505050565b610c336109f7565b73ffffffffffffffffffffffffffffffffffffffff16610c51610672565b73ffffffffffffffffffffffffffffffffffffffff1614610cb057610c746109f7565b6040517f118cdaa7000000000000000000000000000000000000000000000000000000008152600401610ca79190611d56565b60405180910390fd5b565b6000600760009054906101000a900473ffffffffffffffffffffffffffffffffffffffff16905081600760006101000a81548173ffffffffffffffffffffffffffffffffffffffff021916908373ffffffffffffffffffffffffffffffffffffffff1602179055508173ffffffffffffffffffffffffffffffffffffffff168173ffffffffffffffffffffffffffffffffffffffff167f8be0079c531659141344cd1fd0a4f28419497f9722a3daafe3b4186f6b6457e060405160405180910390a35050565b600073ffffffffffffffffffffffffffffffffffffffff168273ffffffffffffffffffffffffffffffffffffffff1603610de957816040517f5b08ba18000000000000000000000000000000000000000000000000000000008152600401610de09190611d56565b60405180910390fd5b80600560008573ffffffffffffffffffffffffffffffffffffffff1673ffffffffffffffffffffffffffffffffffffffff16815260200190815260200160002060008473ffffffffffffffffffffffffffffffffffffffff1673ffffffffffffffffffffffffffffffffffffffff16815260200190815260200160002060006101000a81548160ff0219169083151502179055508173ffffffffffffffffffffffffffffffffffffffff168373ffffffffffffffffffffffffffffffffffffffff167f17307eab39ab6107e8899845ad3d59bd9653f200f220920489ca2b5937696c3183604051610eda9190611be5565b60405180910390a3505050565b60008373ffffffffffffffffffffffffffffffffffffffff163b1115611091578273ffffffffffffffffffffffffffffffffffffffff1663150b7a02868685856040518563ffffffff1660e01b8152600401610f469493929190612612565b6020604051808303816000875af1925050508015610f8257506040513d601f19601f82011682018060405250810190610f7f9190612673565b60015b611006573d8060008114610fb2576040519150601f19603f3d011682016040523d82523d6000602084013e610fb7565b606091505b506000815103610ffe57836040517f64a0ae92000000000000000000000000000000000000000000000000000000008152600401610ff59190611d56565b60405180910390fd5b805181602001fd5b63150b7a0260e01b7bffffffffffffffffffffffffffffffffffffffffffffffffffffffff1916817bffffffffffffffffffffffffffffffffffffffffffffffffffffffff19161461108f57836040517f64a0ae920000000000000000000000000000000000000000000000000000000081526004016110869190611d56565b60405180910390fd5b505b5050505050565b60606110a382610932565b5060006006600084815260200190815260200160002080546110c490612260565b80601f01602080910402602001604051908101604052809291908181526020018280546110f090612260565b801561113d5780601f106111125761010080835404028352916020019161113d565b820191906000526020600020905b81548152906001019060200180831161112057829003601f168201915b50505050509050600061114e6115cd565b905060008151036111635781925050506111a6565b6000825111156111985780826040516020016111809291906126dc565b604051602081830303815290604052925050506111a6565b6111a18461165f565b925050505b919050565b6111c58282604051806020016040528060008152506116c8565b5050565b806006600084815260200190815260200160002090816111e99190612474565b507ff8e1a15aba9398e019f0b49df1a4fde98ee17ae345cb5f6b5e2c27f5033e8ce7826040516112199190611fea565b60405180910390a15050565b60007f80ac58cd000000000000000000000000000000000000000000000000000000007bffffffffffffffffffffffffffffffffffffffffffffffffffffffff1916827bffffffffffffffffffffffffffffffffffffffffffffffffffffffff191614806112f057507f5b5e139f000000000000000000000000000000000000000000000000000000007bffffffffffffffffffffffffffffffffffffffffffffffffffffffff1916827bffffffffffffffffffffffffffffffffffffffffffffffffffffffff1916145b8061130057506112ff826116ec565b5b9050919050565b60006002600083815260200190815260200160002060009054906101000a900473ffffffffffffffffffffffffffffffffffffffff169050919050565b808061137d5750600073ffffffffffffffffffffffffffffffffffffffff168273ffffffffffffffffffffffffffffffffffffffff1614155b156114b157600061138d84610932565b9050600073ffffffffffffffffffffffffffffffffffffffff168373ffffffffffffffffffffffffffffffffffffffff16141580156113f857508273ffffffffffffffffffffffffffffffffffffffff168173ffffffffffffffffffffffffffffffffffffffff1614155b801561140b575061140981846107b7565b155b1561144d57826040517fa9fbf51f0000000000000000000000000000000000000000000000000000000081526004016114449190611d56565b60405180910390fd5b81156114af57838573ffffffffffffffffffffffffffffffffffffffff168273ffffffffffffffffffffffffffffffffffffffff167f8c5be1e5ebec7d5bd14f71427d1e84f3dd0314c0f7b2291e5b200ac8c7c3b92560405160405180910390a45b505b836004600085815260200190815260200160002060006101000a81548173ffffffffffffffffffffffffffffffffffffffff021916908373ffffffffffffffffffffffffffffffffffffffff16021790555050505050565b611514838383611756565b6115c857600073ffffffffffffffffffffffffffffffffffffffff168373ffffffffffffffffffffffffffffffffffffffff160361158957806040517f7e2732890000000000000000000000000000000000000000000000000000000081526004016115809190611fea565b60405180910390fd5b81816040517f177e802f0000000000000000000000000000000000000000000000000000000081526004016115bf929190612700565b60405180910390fd5b505050565b6060600980546115dc90612260565b80601f016020809104026020016040519081016040528092919081815260200182805461160890612260565b80156116555780601f1061162a57610100808354040283529160200191611655565b820191906000526020600020905b81548152906001019060200180831161163857829003601f168201915b5050505050905090565b606061166a82610932565b5060006116756115cd565b9050600081511161169557604051806020016040528060008152506116c0565b8061169f84611817565b6040516020016116b09291906126dc565b6040516020818303038152906040525b915050919050565b6116d283836118e5565b6116e76116dd6109f7565b6000858585610ee7565b505050565b60007f01ffc9a7000000000000000000000000000000000000000000000000000000007bffffffffffffffffffffffffffffffffffffffffffffffffffffffff1916827bffffffffffffffffffffffffffffffffffffffffffffffffffffffff1916149050919050565b60008073ffffffffffffffffffffffffffffffffffffffff168373ffffffffffffffffffffffffffffffffffffffff161415801561180e57508273ffffffffffffffffffffffffffffffffffffffff168473ffffffffffffffffffffffffffffffffffffffff1614806117cf57506117ce84846107b7565b5b8061180d57508273ffffffffffffffffffffffffffffffffffffffff166117f5836109ba565b73ffffffffffffffffffffffffffffffffffffffff16145b5b90509392505050565b606060006001611826846119de565b01905060008167ffffffffffffffff81111561184557611844611e3a565b5b6040519080825280601f01601f1916602001820160405280156118775781602001600182028036833780820191505090505b509050600082602001820190505b6001156118da578080600190039150507f3031323334353637383961626364656600000000000000000000000000000000600a86061a8153600a85816118ce576118cd612729565b5b04945060008503611885575b819350505050919050565b600073ffffffffffffffffffffffffffffffffffffffff168273ffffffffffffffffffffffffffffffffffffffff16036119575760006040517f64a0ae9200000000000000000000000000000000000000000000000000000000815260040161194e9190611d56565b60405180910390fd5b600061196583836000610a11565b9050600073ffffffffffffffffffffffffffffffffffffffff168173ffffffffffffffffffffffffffffffffffffffff16146119d95760006040517f73c6ac6e0000000000000000000000000000000000000000000000000000000081526004016119d09190611d56565b60405180910390fd5b505050565b600080600090507a184f03e93ff9f4daa797ed6e38ed64bf6a1f0100000000000000008310611a3c577a184f03e93ff9f4daa797ed6e38ed64bf6a1f0100000000000000008381611a3257611a31612729565b5b0492506040810190505b6d04ee2d6d415b85acef81000000008310611a79576d04ee2d6d415b85acef81000000008381611a6f57611a6e612729565b5b0492506020810190505b662386f26fc100008310611aa857662386f26fc100008381611a9e57611a9d612729565b5b0492506010810190505b6305f5e1008310611ad1576305f5e1008381611ac757611ac6612729565b5b0492506008810190505b6127108310611af6576127108381611aec57611aeb612729565b5b0492506004810190505b60648310611b195760648381611b0f57611b0e612729565b5b0492506002810190505b600a8310611b28576001810190505b80915050919050565b6000604051905090565b600080fd5b600080fd5b60007fffffffff0000000000000000000000000000000000000000000000000000000082169050919050565b611b7a81611b45565b8114611b8557600080fd5b50565b600081359050611b9781611b71565b92915050565b600060208284031215611bb357611bb2611b3b565b5b6000611bc184828501611b88565b91505092915050565b60008115159050919050565b611bdf81611bca565b82525050565b6000602082019050611bfa6000830184611bd6565b92915050565b600081519050919050565b600082825260208201905092915050565b60005b83811015611c3a578082015181840152602081019050611c1f565b60008484015250505050565b6000601f19601f8301169050919050565b6000611c6282611c00565b611c6c8185611c0b565b9350611c7c818560208601611c1c565b611c8581611c46565b840191505092915050565b60006020820190508181036000830152611caa8184611c57565b905092915050565b6000819050919050565b611cc581611cb2565b8114611cd057600080fd5b50565b600081359050611ce281611cbc565b92915050565b600060208284031215611cfe57611cfd611b3b565b5b6000611d0c84828501611cd3565b91505092915050565b600073ffffffffffffffffffffffffffffffffffffffff82169050919050565b6000611d4082611d15565b9050919050565b611d5081611d35565b82525050565b6000602082019050611d6b6000830184611d47565b92915050565b611d7a81611d35565b8114611d8557600080fd5b50565b600081359050611d9781611d71565b92915050565b60008060408385031215611db457611db3611b3b565b5b6000611dc285828601611d88565b9250506020611dd385828601611cd3565b9150509250929050565b600080600060608486031215611df657611df5611b3b565b5b6000611e0486828701611d88565b9350506020611e1586828701611d88565b9250506040611e2686828701611cd3565b9150509250925092565b600080fd5b600080fd5b7f4e487b7100000000000000000000000000000000000000000000000000000000600052604160045260246000fd5b611e7282611c46565b810181811067ffffffffffffffff82111715611e9157611e90611e3a565b5b80604052505050565b6000611ea4611b31565b9050611eb08282611e69565b919050565b600067ffffffffffffffff821115611ed057611ecf611e3a565b5b611ed982611c46565b9050602081019050919050565b82818337600083830152505050565b6000611f08611f0384611eb5565b611e9a565b905082815260208101848484011115611f2457611f23611e35565b5b611f2f848285611ee6565b509392505050565b600082601f830112611f4c57611f4b611e30565b5b8135611f5c848260208601611ef5565b91505092915050565b600060208284031215611f7b57611f7a611b3b565b5b600082013567ffffffffffffffff811115611f9957611f98611b40565b5b611fa584828501611f37565b91505092915050565b600060208284031215611fc457611fc3611b3b565b5b6000611fd284828501611d88565b91505092915050565b611fe481611cb2565b82525050565b6000602082019050611fff6000830184611fdb565b92915050565b61200e81611bca565b811461201957600080fd5b50565b60008135905061202b81612005565b92915050565b6000806040838503121561204857612047611b3b565b5b600061205685828601611d88565b92505060206120678582860161201c565b9150509250929050565b600067ffffffffffffffff82111561208c5761208b611e3a565b5b61209582611c46565b9050602081019050919050565b60006120b56120b084612071565b611e9a565b9050828152602081018484840111156120d1576120d0611e35565b5b6120dc848285611ee6565b509392505050565b600082601f8301126120f9576120f8611e30565b5b81356121098482602086016120a2565b91505092915050565b6000806000806080858703121561212c5761212b611b3b565b5b600061213a87828801611d88565b945050602061214b87828801611d88565b935050604061215c87828801611cd3565b925050606085013567ffffffffffffffff81111561217d5761217c611b40565b5b612189878288016120e4565b91505092959194509250565b600080604083850312156121ac576121ab611b3b565b5b60006121ba85828601611d88565b925050602083013567ffffffffffffffff8111156121db576121da611b40565b5b6121e785828601611f37565b9150509250929050565b6000806040838503121561220857612207611b3b565b5b600061221685828601611d88565b925050602061222785828601611d88565b9150509250929050565b7f4e487b7100000000000000000000000000000000000000000000000000000000600052602260045260246000fd5b6000600282049050600182168061227857607f821691505b60208210810361228b5761228a612231565b5b50919050565b60006060820190506122a66000830186611d47565b6122b36020830185611fdb565b6122c06040830184611d47565b949350505050565b60008190508160005260206000209050919050565b60006020601f8301049050919050565b600082821b905092915050565b60006008830261232a7fffffffffffffffffffffffffffffffffffffffffffffffffffffffffffffffff826122ed565b61233486836122ed565b95508019841693508086168417925050509392505050565b6000819050919050565b600061237161236c61236784611cb2565b61234c565b611cb2565b9050919050565b6000819050919050565b61238b83612356565b61239f61239782612378565b8484546122fa565b825550505050565b600090565b6123b46123a7565b6123bf818484612382565b505050565b5b818110156123e3576123d86000826123ac565b6001810190506123c5565b5050565b601f821115612428576123f9816122c8565b612402846122dd565b81016020851015612411578190505b61242561241d856122dd565b8301826123c4565b50505b505050565b600082821c905092915050565b600061244b6000198460080261242d565b1980831691505092915050565b6000612464838361243a565b9150826002028217905092915050565b61247d82611c00565b67ffffffffffffffff81111561249657612495611e3a565b5b6124a08254612260565b6124ab8282856123e7565b600060209050601f8311600181146124de57600084156124cc578287015190505b6124d68582612458565b86555061253e565b601f1984166124ec866122c8565b60005b82811015612514578489015182556001820191506020850194506020810190506124ef565b86831015612531578489015161252d601f89168261243a565b8355505b6001600288020188555050505b505050505050565b7f4e487b7100000000000000000000000000000000000000000000000000000000600052601160045260246000fd5b600061258082611cb2565b91507fffffffffffffffffffffffffffffffffffffffffffffffffffffffffffffffff82036125b2576125b1612546565b5b600182019050919050565b600081519050919050565b600082825260208201905092915050565b60006125e4826125bd565b6125ee81856125c8565b93506125fe818560208601611c1c565b61260781611c46565b840191505092915050565b60006080820190506126276000830187611d47565b6126346020830186611d47565b6126416040830185611fdb565b818103606083015261265381846125d9565b905095945050505050565b60008151905061266d81611b71565b92915050565b60006020828403121561268957612688611b3b565b5b60006126978482850161265e565b91505092915050565b600081905092915050565b60006126b682611c00565b6126c081856126a0565b93506126d0818560208601611c1c565b80840191505092915050565b60006126e882856126ab565b91506126f482846126ab565b91508190509392505050565b60006040820190506127156000830185611d47565b6127226020830184611fdb565b9392505050565b7f4e487b7100000000000000000000000000000000000000000000000000000000600052601260045260246000fdfea264697066735822122095952504c3a6ed44629d8f448651778c716d996413cbfa3f559181c415dcdc8f64736f6c63430008140033",
  "linkReferences": {},
  "deployedLinkReferences": {}
}